:100000000C942A000C9434000C9434000C943400AA
:100010000C9434000C9434000C9434000C94340090
:100020000C9434000C9434000C9434000C94340080
:100030000C9434000C9434000C9434000C94340070
:100040000C9434000C9434000C9434000C94340060
:100050000C94340011241FBECFE5D8E0DEBFCDBF25
:100060000E94C5000C9442010C9400001ABA17BA01
:1000700014BA88E081BB0895883000F5662381F0CA
:10008000613009F081C04BB321E030E0B90102C01A
:10009000660F771F8A95E2F7CB01842B8BBB0895FF
:1000A0004BB321E030E0B90102C0660F771F8A959B
:1000B000E2F7CB01809584238BBB0895803108F54E
:1000C0008850662381F0613009F05EC048B321E0BA
:1000D00030E0B90102C0660F771F8A95E2F7CB01C5
:1000E000842B88BB089548B321E030E0B90102C0F9
:1000F000660F771F8A95E2F7CB018095842388BB32
:100100000895883100F58051662379F06130E1F57A
:1001100045B321E030E0B90102C0660F771F8A9530
:10012000E2F7CB01842B85BB089545B321E030E095
:10013000B90102C0660F771F8A95E2F7CB0180955F
:10014000842385BB08958032F8F48851662379F0C2
:100150006130D1F442B321E030E0B90102C0660F52
:10016000771F8A95E2F7CB01842B82BB089542B3B7
:1001700021E030E0B90102C0660F771F8A95E2F7EF
:10018000CB018095842382BB08950E94360060E0F5
:100190008BE10E943C002FEF83ED90E321508040E3
:1001A0009040E1F700C0000061E08BE10E943C005C
:1001B00086E00E94E2000E94DE00FFCF81B58860E9
:1001C00081BD089581110AC081B58E7F81BD81B541
:1001D0008D7F81BD81B58B7F81BD0895813051F4C4
:1001E00081B58E7F81BD81B58D7F81BD81B58460F4
:1001F00081BD0895823051F481B58E7F81BD81B576
:10020000826081BD81B58B7F81BD0895833051F4BB
:1002100081B58E7F81BD81B5826081BD81B58460ED
:1002200081BD0895843051F481B5816081BD81B56F
:100230008D7F81BD81B58B7F81BD0895853051F45F
:1002400081B5816081BD81B58D7F81BD81B58460BF
:1002500081BD0895863051F481B58E7F81BD81B511
:10026000826081BD81B5846081BD0895873049F485
:1002700081B5816081BD81B5826081BD81B58460B9
:0802800081BD0895F894FFCF41
:00000001FF
