:100000000C942A000C9415010C9434000C943400C8
:100010000C9434000C9434000C9434000C94340090
:100020000C9434000C9434000C9434000C94340080
:100030000C9434000C9434000C9434000C94340070
:100040000C9434000C9434000C9434000C94340060
:100050000C94340011241FBECFE5D8E0DEBFCDBF25
:100060000E94D2000C9444010C9400001ABA17BAF2
:1000700084E884BB88E081BB0895883000F566235E
:1000800081F0613009F081C04BB321E030E0B9016B
:1000900002C0660F771F8A95E2F7CB01842B8BBBDA
:1000A00008954BB321E030E0B90102C0660F771F1D
:1000B0008A95E2F7CB01809584238BBB089580312C
:1000C00008F58850662381F0613009F05EC048B3BE
:1000D00021E030E0B90102C0660F771F8A95E2F790
:1000E000CB01842B88BB089548B321E030E0B901EF
:1000F00002C0660F771F8A95E2F7CB0180958423B3
:1001000088BB0895883100F58051662379F061300D
:10011000E1F545B321E030E0B90102C0660F771F79
:100120008A95E2F7CB01842B85BB089545B321E086
:1001300030E0B90102C0660F771F8A95E2F7CB0164
:100140008095842385BB08958032F8F48851662316
:1001500079F06130D1F442B321E030E0B90102C05E
:10016000660F771F8A95E2F7CB01842B82BB089537
:1001700042B321E030E0B90102C0660F771F8A95D3
:10018000E2F7CB018095842382BB089585B78E7FEB
:1001900085BF85B7826085BF8BB780648BBF0895AC
:1001A000789408950E9436000E94C6000E94D000F4
:1001B00061E08AE10E943D0061E082E10E943D0031
:1001C0002FEF83EC99E0215080409040E1F700C090
:1001D000000061E087E10E943D002FEF83EC99E091
:1001E000215080409040E1F700C0000060E082E1D3
:1001F0000E943D002FEF83EC99E021508040904019
:10020000E1F700C0000060E087E10E943D002FEFB1
:1002100083EC99E0215080409040E1F700C000005D
:1002200060E08BE10E943D00C7CF1F920F920FB696
:100230000F9211242F933F934F935F936F937F936C
:100240008F939F93AF93BF93EF93FF9361E08BE105
:100250000E943D002FEF83ED90E3215080409040BD
:10026000E1F700C00000FF91EF91BF91AF919F9126
:100270008F917F916F915F914F913F912F910F904F
:0C0280000FBE0F901F901895F894FFCF50
:00000001FF
