S013000054494D4552305F6C6162312E73726563A1
S11300000C942A000C943C000C943C000C943C008E
S11300100C943C000C943C000C943C000C943C006C
S11300200C943C000C943C000C9453010C942C0153
S11300300C943C000C943C000C943C000C943C004C
S11300400C943C000C943C000C943C000C943C003C
S11300500C943C0011241FBECFE5D8E0DEBFCDBF19
S113006020E0A0E6B0E001C01D92A736B207E1F798
S11300700E94ED000C947A010C9400001ABA17BA8D
S113008080E884BB11BA0895883000F5662381F0B6
S1130090613009F081C04BB321E030E0B90102C006
S11300A0660F771F8A95E2F7CB01842B8BBB0895EB
S11300B04BB321E030E0B90102C0660F771F8A9587
S11300C0E2F7CB01809584238BBB0895803108F53A
S11300D08850662381F0613009F05EC048B321E0A6
S11300E030E0B90102C0660F771F8A95E2F7CB01B1
S11300F0842B88BB089548B321E030E0B90102C0E5
S1130100660F771F8A95E2F7CB018095842388BB1D
S11301100895883100F58051662379F06130E1F566
S113012045B321E030E0B90102C0660F771F8A951C
S1130130E2F7CB01842B85BB089545B321E030E081
S1130140B90102C0660F771F8A95E2F7CB0180954B
S1130150842385BB08958032F8F48851662379F0AE
S11301606130D1F442B321E030E0B90102C0660F3E
S1130170771F8A95E2F7CB01842B82BB089542B3A3
S113018021E030E0B90102C0660F771F8A95E2F7DB
S1130190CB018095842382BB08958FB780688FBF7D
S11301A0089580916100909162000196909362009D
S11301B080936100883E934079F46091600087E108
S11301C00E9444009091600081E089278093600040
S11301D0109262001092610008950E943E000E94F5
S11301E0FD0081ED90E00E9427018AEF0E94210129
S11301F00E9423010E94CD00FFCF83B78F7B83BF72
S113020083B7886083BF83B7816083BF83B782600D
S113021083BF83B78B7F83BF83B78F7E83BF83B74F
S11302208F7D83BF89B78E7F89BF89B78D7F89BF53
S113023088B7816088BF88B7826088BF12BE1CBE41
S113024008958CBF089589B7826089BF08959093FB
S113025064008093630008951F920F920FB60F926B
S113026011242F933F934F935F936F937F938F93B7
S11302709F93AF93BF93EF93FF93E0916500F09149
S113028066000995FF91EF91BF91AF919F918F9176
S11302907F916F915F914F913F912F910F900FBE7E
S11302A00F901F9018951F920F920FB60F92112462
S11302B02F933F934F935F936F937F938F939F936A
S11302C0AF93BF93EF93FF93E0916300F0916400C9
S11302D00995FF91EF91BF91AF919F918F917F917C
S11302E06F915F914F913F912F910F900FBE0F909F
S10B02F01F901895F894FFCF4C
S9030000FC
