:100000000C942A000C9434000C9434000C943400AA
:100010000C9434000C9434000C9434000C94340090
:100020000C9434000C9434000C9434000C94340080
:100030000C9434000C9434000C9434000C94340070
:100040000C9434000C9434000C9434000C94340060
:100050000C94340011241FBECFE5D8E0DEBFCDBF25
:100060000E94F5000C9444020C94000086B1806854
:1000700086B9089587B1806487B987B18F7787B9CA
:1000800087B18F7D87B986B1816086B986B182607C
:1000900086B986B1846086B90E943600089597B10A
:1000A000907E97B997B1892B87B914B815B886B1E6
:1000B000806486B93699FECF24B185B1837090E013
:1000C000982F8827822B089580EF8ABB8EE087BB0C
:1000D00080E884BB11BA0895883000F5662381F06A
:1000E000613009F081C04BB321E030E0B90102C0BA
:1000F000660F771F8A95E2F7CB01842B8BBB08959F
:100100004BB321E030E0B90102C0660F771F8A953A
:10011000E2F7CB01809584238BBB0895803108F5ED
:100120008850662381F0613009F05EC048B321E059
:1001300030E0B90102C0660F771F8A95E2F7CB0164
:10014000842B88BB089548B321E030E0B90102C098
:10015000660F771F8A95E2F7CB018095842388BBD1
:100160000895883100F58051662379F06130E1F51A
:1001700045B321E030E0B90102C0660F771F8A95D0
:10018000E2F7CB01842B85BB089545B321E030E035
:10019000B90102C0660F771F8A95E2F7CB018095FF
:1001A000842385BB08958032F8F48851662379F062
:1001B0006130D1F442B321E030E0B90102C0660FF2
:1001C000771F8A95E2F7CB01842B82BB089542B357
:1001D00021E030E0B90102C0660F771F8A95E2F78F
:1001E000CB018095842382BB08950E9464000E9405
:1001F0003A0082E090E00E944F00BC0180E090E075
:100200000E94250120E030E040EA50E40E9486018F
:1002100020E030E040E85AE30E9486012DEC3CECFF
:100220004CEC5DE30E94200188232CF461E087E11F
:100230000E946C00DECF60E087E10E946C00D9CFA5
:100240000E94620108F481E00895E89409C097FBD8
:100250003EF490958095709561957F4F8F4F9F4F9D
:100260009923A9F0F92F96E9BB279395F6958795E1
:1002700077956795B795F111F8CFFAF4BB0F11F4A4
:1002800060FF1BC06F5F7F4F8F4F9F4F16C088234B
:1002900011F096E911C0772321F09EE8872F762F81
:1002A00005C0662371F096E8862F70E060E02AF0C2
:1002B0009A95660F771F881FDAF7880F96958795AE
:1002C00097F90895990F0008550FAA0BE0E8FEEF83
:1002D00016161706E807F907C0F012161306E4070A
:1002E000F50798F0621B730B840B950B39F40A2603
:1002F00061F0232B242B252B21F408950A2609F4E1
:10030000A140A6958FEF811D811D08950E9499013E
:100310000C940A020E94FC0138F00E94030220F0B3
:10032000952311F00C94F3010C94F90111240C9411
:100330003E020E941B0270F3959FC1F3950F50E09F
:10034000551F629FF001729FBB27F00DB11D639F87
:10035000AA27F00DB11DAA1F649F6627B00DA11D2D
:10036000661F829F2227B00DA11D621F739FB00DD3
:10037000A11D621F839FA00D611D221F749F332743
:10038000A00D611D231F849F600D211D822F762FDC
:100390006A2F11249F5750409AF0F1F088234AF0B9
:1003A000EE0FFF1FBB1F661F771F881F9150504025
:1003B000A9F79E3F510580F00C94F3010C943E0286
:1003C0005F3FE4F3983ED4F3869577956795B795AC
:1003D000F795E7959F5FC1F7FE2B880F911D9695C6
:1003E000879597F9089597F99F6780E870E060E036
:1003F00008959FEF80EC089500240A9416161706BE
:1004000018060906089500240A9412161306140605
:1004100005060895092E0394000C11F4882352F068
:10042000BB0F40F4BF2B11F460FF04C06F5F7F4F20
:100430008F4F9F4F089557FD9058440F551F59F007
:100440005F3F71F04795880F97FB991F61F09F3FC1
:1004500079F087950895121613061406551FF2CFEA
:100460004695F1DF08C0161617061806991FF1CF3A
:1004700086957105610508940895E894BB27662761
:0C0480007727CB0197F90895F894FFCF7F
:00000001FF
