S01900004763634170706C69636174696F6E44494F2E73726563AE
S11300000C942A000C9434000C9434000C943400A6
S11300100C9434000C9434000C9434000C9434008C
S11300200C9434000C9434000C9434000C9434007C
S11300300C9434000C9434000C9434000C9434006C
S11300400C9434000C9434000C9434000C9434005C
S11300500C94340011241FBECFE5D8E0DEBFCDBF21
S11300600E94FF000C9428010C94000080EF8ABBCE
S113007082E087BB14BA11BA0895883000F566236C
S113008081F0613009F081C04BB321E030E0B90167
S113009002C0660F771F8A95E2F7CB01842B8BBBD6
S11300A008954BB321E030E0B90102C0660F771F19
S11300B08A95E2F7CB01809584238BBB0895803128
S11300C008F58850662381F0613009F05EC048B3BA
S11300D021E030E0B90102C0660F771F8A95E2F78C
S11300E0CB01842B88BB089548B321E030E0B901EB
S11300F002C0660F771F8A95E2F7CB0180958423AF
S113010088BB0895883100F58051662379F0613009
S1130110E1F545B321E030E0B90102C0660F771F75
S11301208A95E2F7CB01842B85BB089545B321E082
S113013030E0B90102C0660F771F8A95E2F7CB0160
S11301408095842385BB08958032F8F48851662312
S113015079F06130D1F442B321E030E0B90102C05A
S1130160660F771F8A95E2F7CB01842B82BB089533
S113017042B321E030E0B90102C0660F771F8A95CF
S1130180E2F7CB018095842382BB0895883058F42C
S113019029B330E0A90102C0559547958A95E2F745
S11301A0CA0181700895803160F428EF280F96B356
S11301B0892F90E002C0959587952A95E2F7817082
S11301C00895883160F420EF280F93B3892F90E0CD
S11301D002C0959587952A95E2F78170089580323B
S11301E060F428EE280F90B3892F90E002C0959513
S11301F087952A95E2F78170089581E008950E9419
S1130200360061E088E10E943D0061E08AE10E94DD
S11302103D001BBAC0E088E10E94C600813049F469
S1130220C93038F4CF5FCBBB88E10E94C60081306F
S1130230D9F38AE10E94C600813069F7CC2359F3CF
S1130240C150CBBB8AE10E94C6008130D9F3E3CF11
S1070250F894FFCF4C
S9030000FC
